{
  "_format": "hh-sol-artifact-1",
  "contractName": "CollectionFactory",
  "sourceName": "contracts/CollectionFactory.sol",
  "abi": [
    {
      "inputs": [],
      "stateMutability": "nonpayable",
      "type": "constructor"
    },
    {
      "anonymous": false,
      "inputs": [
        {
          "indexed": true,
          "internalType": "address",
          "name": "collectionAddress",
          "type": "address"
        },
        {
          "indexed": true,
          "internalType": "address",
          "name": "owner",
          "type": "address"
        },
        {
          "indexed": false,
          "internalType": "string",
          "name": "name",
          "type": "string"
        },
        {
          "indexed": false,
          "internalType": "string",
          "name": "symbol",
          "type": "string"
        },
        {
          "indexed": false,
          "internalType": "string",
          "name": "urlMetadata",
          "type": "string"
        }
      ],
      "name": "CollectionCreated",
      "type": "event"
    },
    {
      "anonymous": false,
      "inputs": [
        {
          "indexed": true,
          "internalType": "address",
          "name": "previousOwner",
          "type": "address"
        },
        {
          "indexed": true,
          "internalType": "address",
          "name": "newOwner",
          "type": "address"
        }
      ],
      "name": "OwnershipTransferred",
      "type": "event"
    },
    {
      "inputs": [
        {
          "internalType": "string",
          "name": "name",
          "type": "string"
        },
        {
          "internalType": "string",
          "name": "symbol",
          "type": "string"
        },
        {
          "internalType": "string",
          "name": "baseURI",
          "type": "string"
        },
        {
          "internalType": "string",
          "name": "urlMetadata",
          "type": "string"
        }
      ],
      "name": "createCollection",
      "outputs": [
        {
          "internalType": "address",
          "name": "",
          "type": "address"
        }
      ],
      "stateMutability": "nonpayable",
      "type": "function"
    },
    {
      "inputs": [],
      "name": "getAllCollections",
      "outputs": [
        {
          "internalType": "address[]",
          "name": "",
          "type": "address[]"
        }
      ],
      "stateMutability": "view",
      "type": "function"
    },
    {
      "inputs": [
        {
          "internalType": "address",
          "name": "owner",
          "type": "address"
        }
      ],
      "name": "getCollectionsByOwner",
      "outputs": [
        {
          "internalType": "address[]",
          "name": "",
          "type": "address[]"
        }
      ],
      "stateMutability": "view",
      "type": "function"
    },
    {
      "inputs": [],
      "name": "owner",
      "outputs": [
        {
          "internalType": "address",
          "name": "",
          "type": "address"
        }
      ],
      "stateMutability": "view",
      "type": "function"
    },
    {
      "inputs": [],
      "name": "renounceOwnership",
      "outputs": [],
      "stateMutability": "nonpayable",
      "type": "function"
    },
    {
      "inputs": [
        {
          "internalType": "address",
          "name": "newOwner",
          "type": "address"
        }
      ],
      "name": "transferOwnership",
      "outputs": [],
      "stateMutability": "nonpayable",
      "type": "function"
    }
  ],
  "bytecode": "0x608060405234801561001057600080fd5b5061001a3361001f565b61006f565b600080546001600160a01b038381166001600160a01b0319831681178455604051919092169283917f8be0079c531659141344cd1fd0a4f28419497f9722a3daafe3b4186f6b6457e09190a35050565b6127378061007e6000396000f3fe60806040523480156200001157600080fd5b50600436106200006a5760003560e01c80636804a958146200006f578063715018a614620000915780638da5cb5b146200009d578063e178d60c14620000c3578063f2fde38b14620000da578063fa15927814620000f1575b600080fd5b6200007962000108565b60405162000088919062000442565b60405180910390f35b6200009b6200016c565b005b6000546001600160a01b03165b6040516001600160a01b03909116815260200162000088565b62000079620000d436600462000491565b62000184565b6200009b620000eb36600462000491565b620001fc565b620000aa620001023660046200056e565b6200027f565b606060028054806020026020016040519081016040528092919081815260200182805480156200016257602002820191906000526020600020905b81546001600160a01b0316815260019091019060200180831162000143575b5050505050905090565b6200017662000388565b620001826000620003e4565b565b6001600160a01b038116600090815260016020908152604091829020805483518184028101840190945280845260609392830182828015620001f057602002820191906000526020600020905b81546001600160a01b03168152600190910190602001808311620001d1575b50505050509050919050565b6200020662000388565b6001600160a01b038116620002715760405162461bcd60e51b815260206004820152602660248201527f4f776e61626c653a206e6577206f776e657220697320746865207a65726f206160448201526564647265737360d01b60648201526084015b60405180910390fd5b6200027c81620003e4565b50565b6000808585338686604051620002959062000434565b620002a595949392919062000670565b604051809103906000f080158015620002c2573d6000803e3d6000fd5b503360008181526001602081815260408084208054808501825590855291842090910180546001600160a01b0387166001600160a01b031991821681179092556002805494850181559094527f405787fa12a823e0f2b7631cc41b3ba8828b3321ca811111fa75cd3aa3bb5ace90920180549093168217909255905192935083927f257420148154685ee05cdaf5c83f10362604770035323dde6f8f5224ef523c9f9062000376908b908b908a90620006e0565b60405180910390a39695505050505050565b6000546001600160a01b03163314620001825760405162461bcd60e51b815260206004820181905260248201527f4f776e61626c653a2063616c6c6572206973206e6f7420746865206f776e6572604482015260640162000268565b600080546001600160a01b038381166001600160a01b0319831681178455604051919092169283917f8be0079c531659141344cd1fd0a4f28419497f9722a3daafe3b4186f6b6457e09190a35050565b611fd8806200072a83390190565b6020808252825182820181905260009190848201906040850190845b81811015620004855783516001600160a01b0316835292840192918401916001016200045e565b50909695505050505050565b600060208284031215620004a457600080fd5b81356001600160a01b0381168114620004bc57600080fd5b9392505050565b634e487b7160e01b600052604160045260246000fd5b600082601f830112620004eb57600080fd5b813567ffffffffffffffff80821115620005095762000509620004c3565b604051601f8301601f19908116603f01168101908282118183101715620005345762000534620004c3565b816040528381528660208588010111156200054e57600080fd5b836020870160208301376000602085830101528094505050505092915050565b600080600080608085870312156200058557600080fd5b843567ffffffffffffffff808211156200059e57600080fd5b620005ac88838901620004d9565b95506020870135915080821115620005c357600080fd5b620005d188838901620004d9565b94506040870135915080821115620005e857600080fd5b620005f688838901620004d9565b935060608701359150808211156200060d57600080fd5b506200061c87828801620004d9565b91505092959194509250565b6000815180845260005b81811015620006505760208185018101518683018201520162000632565b506000602082860101526020601f19601f83011685010191505092915050565b60a0815260006200068560a083018862000628565b828103602084015262000699818862000628565b6001600160a01b038716604085015283810360608501529050620006be818662000628565b90508281036080840152620006d4818562000628565b98975050505050505050565b606081526000620006f5606083018662000628565b828103602084015262000709818662000628565b905082810360408401526200071f818562000628565b969550505050505056fe60806040523480156200001157600080fd5b5060405162001fd838038062001fd88339810160408190526200003491620001dd565b8484600062000044838262000347565b50600162000053828262000347565b505050620000706200006a620000c260201b60201c565b620000c6565b600a6200007e868262000347565b50600b6200008d858262000347565b5060096200009c838262000347565b50600c620000ab828262000347565b50620000b783620000c6565b505050505062000413565b3390565b600780546001600160a01b038381166001600160a01b0319831681179093556040519116919082907f8be0079c531659141344cd1fd0a4f28419497f9722a3daafe3b4186f6b6457e090600090a35050565b634e487b7160e01b600052604160045260246000fd5b600082601f8301126200014057600080fd5b81516001600160401b03808211156200015d576200015d62000118565b604051601f8301601f19908116603f0116810190828211818310171562000188576200018862000118565b81604052838152602092508683858801011115620001a557600080fd5b600091505b83821015620001c95785820183015181830184015290820190620001aa565b600093810190920192909252949350505050565b600080600080600060a08688031215620001f657600080fd5b85516001600160401b03808211156200020e57600080fd5b6200021c89838a016200012e565b965060208801519150808211156200023357600080fd5b6200024189838a016200012e565b604089015190965091506001600160a01b03821682146200026157600080fd5b6060880151919450808211156200027757600080fd5b6200028589838a016200012e565b935060808801519150808211156200029c57600080fd5b50620002ab888289016200012e565b9150509295509295909350565b600181811c90821680620002cd57607f821691505b602082108103620002ee57634e487b7160e01b600052602260045260246000fd5b50919050565b601f8211156200034257600081815260208120601f850160051c810160208610156200031d5750805b601f850160051c820191505b818110156200033e5782815560010162000329565b5050505b505050565b81516001600160401b0381111562000363576200036362000118565b6200037b81620003748454620002b8565b84620002f4565b602080601f831160018114620003b357600084156200039a5750858301515b600019600386901b1c1916600185901b1785556200033e565b600085815260208120601f198616915b82811015620003e457888601518255948401946001909101908401620003c3565b5085821015620004035787850151600019600388901b60f8161c191681555b5050505050600190811b01905550565b611bb580620004236000396000f3fe608060405234801561001057600080fd5b506004361061012c5760003560e01c8063715018a6116100ad578063c87b56dd11610071578063c87b56dd1461027b578063d48e638a1461028e578063d85d3d27146102a1578063e985e9c5146102b4578063f2fde38b146102f057600080fd5b8063715018a6146102345780638da5cb5b1461023c57806395d89b411461024d578063a22cb46514610255578063b88d4fde1461026857600080fd5b806323b872dd116100f457806323b872dd146101c757806342842e0e146101da57806355f804b3146101ed5780636352211e1461020057806370a082311461021357600080fd5b806301ffc9a71461013157806306fdde0314610159578063081812fc1461016e578063095ea7b3146101995780631a77447c146101ae575b600080fd5b61014461013f36600461157e565b610303565b60405190151581526020015b60405180910390f35b610161610314565b60405161015091906115eb565b61018161017c3660046115fe565b6103a6565b6040516001600160a01b039091168152602001610150565b6101ac6101a736600461162e565b6103cd565b005b6101b66104e7565b604051610150959493929190611658565b6101ac6101d53660046116b3565b6106bf565b6101ac6101e83660046116b3565b6106f0565b6101ac6101fb36600461177b565b61070b565b61018161020e3660046115fe565b610723565b6102266102213660046117c4565b610783565b604051908152602001610150565b6101ac610809565b6007546001600160a01b0316610181565b61016161081d565b6101ac6102633660046117df565b61082c565b6101ac61027636600461181b565b610837565b6101616102893660046115fe565b61086f565b61018161029c3660046115fe565b61087a565b6102266102af36600461177b565b6108ef565b6101446102c2366004611897565b6001600160a01b03918216600090815260056020908152604080832093909416825291909152205460ff1690565b6101ac6102fe3660046117c4565b61099d565b600061030e82610a16565b92915050565b606060008054610323906118ca565b80601f016020809104026020016040519081016040528092919081815260200182805461034f906118ca565b801561039c5780601f106103715761010080835404028352916020019161039c565b820191906000526020600020905b81548152906001019060200180831161037f57829003601f168201915b5050505050905090565b60006103b182610a3b565b506000908152600460205260409020546001600160a01b031690565b60006103d882610723565b9050806001600160a01b0316836001600160a01b03160361044a5760405162461bcd60e51b815260206004820152602160248201527f4552433732313a20617070726f76616c20746f2063757272656e74206f776e656044820152603960f91b60648201526084015b60405180910390fd5b336001600160a01b0382161480610466575061046681336102c2565b6104d85760405162461bcd60e51b815260206004820152603d60248201527f4552433732313a20617070726f76652063616c6c6572206973206e6f7420746f60448201527f6b656e206f776e6572206f7220617070726f76656420666f7220616c6c0000006064820152608401610441565b6104e28383610a9a565b505050565b6060806000806060600a600b6105056007546001600160a01b031690565b600854600c848054610516906118ca565b80601f0160208091040260200160405190810160405280929190818152602001828054610542906118ca565b801561058f5780601f106105645761010080835404028352916020019161058f565b820191906000526020600020905b81548152906001019060200180831161057257829003601f168201915b505050505094508380546105a2906118ca565b80601f01602080910402602001604051908101604052809291908181526020018280546105ce906118ca565b801561061b5780601f106105f05761010080835404028352916020019161061b565b820191906000526020600020905b8154815290600101906020018083116105fe57829003601f168201915b5050505050935080805461062e906118ca565b80601f016020809104026020016040519081016040528092919081815260200182805461065a906118ca565b80156106a75780601f1061067c576101008083540402835291602001916106a7565b820191906000526020600020905b81548152906001019060200180831161068a57829003601f168201915b50505050509050945094509450945094509091929394565b6106c93382610b08565b6106e55760405162461bcd60e51b815260040161044190611904565b6104e2838383610b87565b6104e283838360405180602001604052806000815250610837565b610713610ceb565b600961071f828261199f565b5050565b6000818152600260205260408120546001600160a01b03168061030e5760405162461bcd60e51b8152602060048201526018602482015277115490cdcc8c4e881a5b9d985b1a59081d1bdad95b88125160421b6044820152606401610441565b60006001600160a01b0382166107ed5760405162461bcd60e51b815260206004820152602960248201527f4552433732313a2061646472657373207a65726f206973206e6f7420612076616044820152683634b21037bbb732b960b91b6064820152608401610441565b506001600160a01b031660009081526003602052604090205490565b610811610ceb565b61081b6000610d45565b565b606060018054610323906118ca565b61071f338383610d97565b6108413383610b08565b61085d5760405162461bcd60e51b815260040161044190611904565b61086984848484610e65565b50505050565b606061030e82610e98565b6000818152600260205260408120546001600160a01b03166108d35760405162461bcd60e51b815260206004820152601260248201527113919508191bd95cc81b9bdd08195e1a5cdd60721b6044820152606401610441565b506000908152600d60205260409020546001600160a01b031690565b60006108f9610ceb565b610907600880546001019055565b600061091260085490565b905061092f6109296007546001600160a01b031690565b82610f93565b6109398184610fad565b6000818152600d60205260409081902080546001600160a01b03191633908117909155905182907f06becd955c918828f6e985541acbf49cc842c9e9bd569fffc7698e721ef135759061098d9087906115eb565b60405180910390a390505b919050565b6109a5610ceb565b6001600160a01b038116610a0a5760405162461bcd60e51b815260206004820152602660248201527f4f776e61626c653a206e6577206f776e657220697320746865207a65726f206160448201526564647265737360d01b6064820152608401610441565b610a1381610d45565b50565b60006001600160e01b03198216632483248360e11b148061030e575061030e82611078565b6000818152600260205260409020546001600160a01b0316610a135760405162461bcd60e51b8152602060048201526018602482015277115490cdcc8c4e881a5b9d985b1a59081d1bdad95b88125160421b6044820152606401610441565b600081815260046020526040902080546001600160a01b0319166001600160a01b0384169081179091558190610acf82610723565b6001600160a01b03167f8c5be1e5ebec7d5bd14f71427d1e84f3dd0314c0f7b2291e5b200ac8c7c3b92560405160405180910390a45050565b600080610b1483610723565b9050806001600160a01b0316846001600160a01b03161480610b5b57506001600160a01b0380821660009081526005602090815260408083209388168352929052205460ff165b80610b7f5750836001600160a01b0316610b74846103a6565b6001600160a01b0316145b949350505050565b826001600160a01b0316610b9a82610723565b6001600160a01b031614610bc05760405162461bcd60e51b815260040161044190611a5f565b6001600160a01b038216610c225760405162461bcd60e51b8152602060048201526024808201527f4552433732313a207472616e7366657220746f20746865207a65726f206164646044820152637265737360e01b6064820152608401610441565b826001600160a01b0316610c3582610723565b6001600160a01b031614610c5b5760405162461bcd60e51b815260040161044190611a5f565b600081815260046020908152604080832080546001600160a01b03199081169091556001600160a01b0387811680865260038552838620805460001901905590871680865283862080546001019055868652600290945282852080549092168417909155905184937fddf252ad1be2c89b69c2b068fc378daa952ba7f163c4a11628f55a4df523b3ef91a4505050565b6007546001600160a01b0316331461081b5760405162461bcd60e51b815260206004820181905260248201527f4f776e61626c653a2063616c6c6572206973206e6f7420746865206f776e65726044820152606401610441565b600780546001600160a01b038381166001600160a01b0319831681179093556040519116919082907f8be0079c531659141344cd1fd0a4f28419497f9722a3daafe3b4186f6b6457e090600090a35050565b816001600160a01b0316836001600160a01b031603610df85760405162461bcd60e51b815260206004820152601960248201527f4552433732313a20617070726f766520746f2063616c6c6572000000000000006044820152606401610441565b6001600160a01b03838116600081815260056020908152604080832094871680845294825291829020805460ff191686151590811790915591519182527f17307eab39ab6107e8899845ad3d59bd9653f200f220920489ca2b5937696c31910160405180910390a3505050565b610e70848484610b87565b610e7c848484846110c8565b6108695760405162461bcd60e51b815260040161044190611aa4565b6060610ea382610a3b565b60008281526006602052604081208054610ebc906118ca565b80601f0160208091040260200160405190810160405280929190818152602001828054610ee8906118ca565b8015610f355780601f10610f0a57610100808354040283529160200191610f35565b820191906000526020600020905b815481529060010190602001808311610f1857829003601f168201915b505050505090506000610f466111c9565b90508051600003610f58575092915050565b815115610f8a578082604051602001610f72929190611af6565b60405160208183030381529060405292505050919050565b610b7f846111d8565b61071f82826040518060200160405280600081525061123f565b6000828152600260205260409020546001600160a01b03166110285760405162461bcd60e51b815260206004820152602e60248201527f45524337323155524953746f726167653a2055524920736574206f66206e6f6e60448201526d32bc34b9ba32b73a103a37b5b2b760911b6064820152608401610441565b6000828152600660205260409020611040828261199f565b506040518281527ff8e1a15aba9398e019f0b49df1a4fde98ee17ae345cb5f6b5e2c27f5033e8ce79060200160405180910390a15050565b60006001600160e01b031982166380ac58cd60e01b14806110a957506001600160e01b03198216635b5e139f60e01b145b8061030e57506301ffc9a760e01b6001600160e01b031983161461030e565b60006001600160a01b0384163b156111be57604051630a85bd0160e11b81526001600160a01b0385169063150b7a029061110c903390899088908890600401611b25565b6020604051808303816000875af1925050508015611147575060408051601f3d908101601f1916820190925261114491810190611b62565b60015b6111a4573d808015611175576040519150601f19603f3d011682016040523d82523d6000602084013e61117a565b606091505b50805160000361119c5760405162461bcd60e51b815260040161044190611aa4565b805181602001fd5b6001600160e01b031916630a85bd0160e11b149050610b7f565b506001949350505050565b606060098054610323906118ca565b60606111e382610a3b565b60006111ed6111c9565b9050600081511161120d5760405180602001604052806000815250611238565b8061121784611272565b604051602001611228929190611af6565b6040516020818303038152906040525b9392505050565b6112498383611305565b61125660008484846110c8565b6104e25760405162461bcd60e51b815260040161044190611aa4565b6060600061127f83611490565b600101905060008167ffffffffffffffff81111561129f5761129f6116ef565b6040519080825280601f01601f1916602001820160405280156112c9576020820181803683370190505b5090508181016020015b600019016f181899199a1a9b1b9c1cb0b131b232b360811b600a86061a8153600a85049450846112d357509392505050565b6001600160a01b03821661135b5760405162461bcd60e51b815260206004820181905260248201527f4552433732313a206d696e7420746f20746865207a65726f20616464726573736044820152606401610441565b6000818152600260205260409020546001600160a01b0316156113c05760405162461bcd60e51b815260206004820152601c60248201527f4552433732313a20746f6b656e20616c7265616479206d696e746564000000006044820152606401610441565b6000818152600260205260409020546001600160a01b0316156114255760405162461bcd60e51b815260206004820152601c60248201527f4552433732313a20746f6b656e20616c7265616479206d696e746564000000006044820152606401610441565b6001600160a01b038216600081815260036020908152604080832080546001019055848352600290915280822080546001600160a01b0319168417905551839291907fddf252ad1be2c89b69c2b068fc378daa952ba7f163c4a11628f55a4df523b3ef908290a45050565b60008072184f03e93ff9f4daa797ed6e38ed64bf6a1f0160401b83106114cf5772184f03e93ff9f4daa797ed6e38ed64bf6a1f0160401b830492506040015b6d04ee2d6d415b85acef810000000083106114fb576d04ee2d6d415b85acef8100000000830492506020015b662386f26fc10000831061151957662386f26fc10000830492506010015b6305f5e1008310611531576305f5e100830492506008015b612710831061154557612710830492506004015b60648310611557576064830492506002015b600a831061030e5760010192915050565b6001600160e01b031981168114610a1357600080fd5b60006020828403121561159057600080fd5b813561123881611568565b60005b838110156115b657818101518382015260200161159e565b50506000910152565b600081518084526115d781602086016020860161159b565b601f01601f19169290920160200192915050565b60208152600061123860208301846115bf565b60006020828403121561161057600080fd5b5035919050565b80356001600160a01b038116811461099857600080fd5b6000806040838503121561164157600080fd5b61164a83611617565b946020939093013593505050565b60a08152600061166b60a08301886115bf565b828103602084015261167d81886115bf565b6001600160a01b038716604085015260608401869052838103608085015290506116a781856115bf565b98975050505050505050565b6000806000606084860312156116c857600080fd5b6116d184611617565b92506116df60208501611617565b9150604084013590509250925092565b634e487b7160e01b600052604160045260246000fd5b600067ffffffffffffffff80841115611720576117206116ef565b604051601f8501601f19908116603f01168101908282118183101715611748576117486116ef565b8160405280935085815286868601111561176157600080fd5b858560208301376000602087830101525050509392505050565b60006020828403121561178d57600080fd5b813567ffffffffffffffff8111156117a457600080fd5b8201601f810184136117b557600080fd5b610b7f84823560208401611705565b6000602082840312156117d657600080fd5b61123882611617565b600080604083850312156117f257600080fd5b6117fb83611617565b91506020830135801515811461181057600080fd5b809150509250929050565b6000806000806080858703121561183157600080fd5b61183a85611617565b935061184860208601611617565b925060408501359150606085013567ffffffffffffffff81111561186b57600080fd5b8501601f8101871361187c57600080fd5b61188b87823560208401611705565b91505092959194509250565b600080604083850312156118aa57600080fd5b6118b383611617565b91506118c160208401611617565b90509250929050565b600181811c908216806118de57607f821691505b6020821081036118fe57634e487b7160e01b600052602260045260246000fd5b50919050565b6020808252602d908201527f4552433732313a2063616c6c6572206973206e6f7420746f6b656e206f776e6560408201526c1c881bdc88185c1c1c9bdd9959609a1b606082015260800190565b601f8211156104e257600081815260208120601f850160051c810160208610156119785750805b601f850160051c820191505b8181101561199757828155600101611984565b505050505050565b815167ffffffffffffffff8111156119b9576119b96116ef565b6119cd816119c784546118ca565b84611951565b602080601f831160018114611a0257600084156119ea5750858301515b600019600386901b1c1916600185901b178555611997565b600085815260208120601f198616915b82811015611a3157888601518255948401946001909101908401611a12565b5085821015611a4f5787850151600019600388901b60f8161c191681555b5050505050600190811b01905550565b60208082526025908201527f4552433732313a207472616e736665722066726f6d20696e636f72726563742060408201526437bbb732b960d91b606082015260800190565b60208082526032908201527f4552433732313a207472616e7366657220746f206e6f6e20455243373231526560408201527131b2b4bb32b91034b6b83632b6b2b73a32b960711b606082015260800190565b60008351611b0881846020880161159b565b835190830190611b1c81836020880161159b565b01949350505050565b6001600160a01b0385811682528416602082015260408101839052608060608201819052600090611b58908301846115bf565b9695505050505050565b600060208284031215611b7457600080fd5b81516112388161156856fea2646970667358221220c73525fe5ce265678dfaea7b0279c1730d360210921f2793b7c0346a0c21ccb464736f6c63430008140033a2646970667358221220140362ff7485fdb57ab6530e216b303f00dae30ad338151325a0ab834a824b1e64736f6c63430008140033",
  "linkReferences": {},
  "deployedLinkReferences": {}
}