{
  "_format": "hh-sol-artifact-1",
  "contractName": "Marketplace",
  "sourceName": "contracts/Marketplace.sol",
  "abi": [
    {
      "inputs": [],
      "stateMutability": "nonpayable",
      "type": "constructor"
    },
    {
      "anonymous": false,
      "inputs": [
        {
          "indexed": true,
          "internalType": "uint256",
          "name": "listingId",
          "type": "uint256"
        },
        {
          "indexed": true,
          "internalType": "address",
          "name": "collection",
          "type": "address"
        },
        {
          "indexed": true,
          "internalType": "uint256",
          "name": "tokenId",
          "type": "uint256"
        }
      ],
      "name": "ListingCanceled",
      "type": "event"
    },
    {
      "anonymous": false,
      "inputs": [
        {
          "indexed": true,
          "internalType": "uint256",
          "name": "listingId",
          "type": "uint256"
        },
        {
          "indexed": true,
          "internalType": "address",
          "name": "collection",
          "type": "address"
        },
        {
          "indexed": true,
          "internalType": "uint256",
          "name": "tokenId",
          "type": "uint256"
        },
        {
          "indexed": false,
          "internalType": "address",
          "name": "seller",
          "type": "address"
        },
        {
          "indexed": false,
          "internalType": "uint256",
          "name": "price",
          "type": "uint256"
        }
      ],
      "name": "NFTListed",
      "type": "event"
    },
    {
      "anonymous": false,
      "inputs": [
        {
          "indexed": true,
          "internalType": "uint256",
          "name": "listingId",
          "type": "uint256"
        },
        {
          "indexed": true,
          "internalType": "address",
          "name": "collection",
          "type": "address"
        },
        {
          "indexed": true,
          "internalType": "uint256",
          "name": "tokenId",
          "type": "uint256"
        },
        {
          "indexed": false,
          "internalType": "address",
          "name": "seller",
          "type": "address"
        },
        {
          "indexed": false,
          "internalType": "address",
          "name": "buyer",
          "type": "address"
        },
        {
          "indexed": false,
          "internalType": "uint256",
          "name": "price",
          "type": "uint256"
        }
      ],
      "name": "NFTSold",
      "type": "event"
    },
    {
      "anonymous": false,
      "inputs": [
        {
          "indexed": true,
          "internalType": "address",
          "name": "previousOwner",
          "type": "address"
        },
        {
          "indexed": true,
          "internalType": "address",
          "name": "newOwner",
          "type": "address"
        }
      ],
      "name": "OwnershipTransferred",
      "type": "event"
    },
    {
      "anonymous": false,
      "inputs": [
        {
          "indexed": true,
          "internalType": "uint256",
          "name": "listingId",
          "type": "uint256"
        },
        {
          "indexed": false,
          "internalType": "uint256",
          "name": "newPrice",
          "type": "uint256"
        }
      ],
      "name": "PriceUpdated",
      "type": "event"
    },
    {
      "inputs": [],
      "name": "PLATFORM_FEE",
      "outputs": [
        {
          "internalType": "uint256",
          "name": "",
          "type": "uint256"
        }
      ],
      "stateMutability": "view",
      "type": "function"
    },
    {
      "inputs": [
        {
          "internalType": "uint256",
          "name": "listingId",
          "type": "uint256"
        }
      ],
      "name": "buyNFT",
      "outputs": [],
      "stateMutability": "payable",
      "type": "function"
    },
    {
      "inputs": [
        {
          "internalType": "uint256",
          "name": "listingId",
          "type": "uint256"
        }
      ],
      "name": "cancelListing",
      "outputs": [],
      "stateMutability": "nonpayable",
      "type": "function"
    },
    {
      "inputs": [
        {
          "internalType": "address",
          "name": "collection",
          "type": "address"
        }
      ],
      "name": "getCollectionListingsCount",
      "outputs": [
        {
          "internalType": "uint256",
          "name": "",
          "type": "uint256"
        }
      ],
      "stateMutability": "view",
      "type": "function"
    },
    {
      "inputs": [
        {
          "internalType": "uint256",
          "name": "listingId",
          "type": "uint256"
        }
      ],
      "name": "getListing",
      "outputs": [
        {
          "components": [
            {
              "internalType": "address",
              "name": "collection",
              "type": "address"
            },
            {
              "internalType": "uint256",
              "name": "tokenId",
              "type": "uint256"
            },
            {
              "internalType": "address",
              "name": "seller",
              "type": "address"
            },
            {
              "internalType": "uint256",
              "name": "price",
              "type": "uint256"
            },
            {
              "internalType": "bool",
              "name": "isActive",
              "type": "bool"
            }
          ],
          "internalType": "struct IMarketplace.Listing",
          "name": "",
          "type": "tuple"
        }
      ],
      "stateMutability": "view",
      "type": "function"
    },
    {
      "inputs": [
        {
          "internalType": "address",
          "name": "collection",
          "type": "address"
        }
      ],
      "name": "getListingsByCollection",
      "outputs": [
        {
          "components": [
            {
              "internalType": "address",
              "name": "collection",
              "type": "address"
            },
            {
              "internalType": "uint256",
              "name": "tokenId",
              "type": "uint256"
            },
            {
              "internalType": "address",
              "name": "seller",
              "type": "address"
            },
            {
              "internalType": "uint256",
              "name": "price",
              "type": "uint256"
            },
            {
              "internalType": "bool",
              "name": "isActive",
              "type": "bool"
            }
          ],
          "internalType": "struct IMarketplace.Listing[]",
          "name": "",
          "type": "tuple[]"
        }
      ],
      "stateMutability": "view",
      "type": "function"
    },
    {
      "inputs": [
        {
          "internalType": "address",
          "name": "collection",
          "type": "address"
        },
        {
          "internalType": "uint256",
          "name": "tokenId",
          "type": "uint256"
        },
        {
          "internalType": "uint256",
          "name": "price",
          "type": "uint256"
        }
      ],
      "name": "listNFT",
      "outputs": [
        {
          "internalType": "uint256",
          "name": "",
          "type": "uint256"
        }
      ],
      "stateMutability": "nonpayable",
      "type": "function"
    },
    {
      "inputs": [],
      "name": "owner",
      "outputs": [
        {
          "internalType": "address",
          "name": "",
          "type": "address"
        }
      ],
      "stateMutability": "view",
      "type": "function"
    },
    {
      "inputs": [],
      "name": "renounceOwnership",
      "outputs": [],
      "stateMutability": "nonpayable",
      "type": "function"
    },
    {
      "inputs": [
        {
          "internalType": "address",
          "name": "newOwner",
          "type": "address"
        }
      ],
      "name": "transferOwnership",
      "outputs": [],
      "stateMutability": "nonpayable",
      "type": "function"
    },
    {
      "inputs": [
        {
          "internalType": "uint256",
          "name": "listingId",
          "type": "uint256"
        },
        {
          "internalType": "uint256",
          "name": "newPrice",
          "type": "uint256"
        }
      ],
      "name": "updatePrice",
      "outputs": [],
      "stateMutability": "nonpayable",
      "type": "function"
    },
    {
      "inputs": [],
      "name": "withdrawFees",
      "outputs": [],
      "stateMutability": "nonpayable",
      "type": "function"
    }
  ],
  "bytecode": "0x608060405234801561001057600080fd5b50600160005561001f33610024565b610076565b600180546001600160a01b038381166001600160a01b0319831681179093556040519116919082907f8be0079c531659141344cd1fd0a4f28419497f9722a3daafe3b4186f6b6457e090600090a35050565b6110a9806100856000396000f3fe6080604052600436106100a75760003560e01c806382367b2d1161006457806382367b2d146101eb5780638da5cb5b1461020b578063982a5ab314610233578063ad05f1b414610260578063b870938714610280578063f2fde38b146102a057600080fd5b8063107a274a146100ac578063305a67a81461016957806334fbc9a11461018b578063476343ee146101ae57806351ed8288146101c3578063715018a6146101d6575b600080fd5b3480156100b857600080fd5b506101536100c7366004610e3b565b6040805160a08101825260008082526020820181905291810182905260608101829052608081019190915250600090815260036020818152604092839020835160a08101855281546001600160a01b03908116825260018301549382019390935260028201549092169382019390935290820154606082015260049091015460ff161515608082015290565b6040516101609190610e91565b60405180910390f35b34801561017557600080fd5b50610189610184366004610e3b565b6102c0565b005b34801561019757600080fd5b506101a060fa81565b604051908152602001610160565b3480156101ba57600080fd5b50610189610392565b6101896101d1366004610e3b565b610443565b3480156101e257600080fd5b50610189610695565b3480156101f757600080fd5b50610189610206366004610ea5565b6106a9565b34801561021757600080fd5b506001546040516001600160a01b039091168152602001610160565b34801561023f57600080fd5b5061025361024e366004610edc565b6107b5565b6040516101609190610f00565b34801561026c57600080fd5b506101a061027b366004610f4e565b610990565b34801561028c57600080fd5b506101a061029b366004610edc565b610c4b565b3480156102ac57600080fd5b506101896102bb366004610edc565b610cc0565b6000818152600360205260409020600481015460ff166102fb5760405162461bcd60e51b81526004016102f290610f83565b60405180910390fd5b60028101546001600160a01b031633146103445760405162461bcd60e51b815260206004820152600a6024820152692737ba1039b2b63632b960b11b60448201526064016102f2565b60048101805460ff19169055600181015481546040516001600160a01b039091169084907fa0778f38b1fdc5bce907afce6a3cd0b872440435089e0cfa72126f3759f82d8190600090a45050565b61039a610d36565b60006103ae6001546001600160a01b031690565b6001600160a01b03164760405160006040518083038185875af1925050503d80600081146103f8576040519150601f19603f3d011682016040523d82523d6000602084013e6103fd565b606091505b50509050806104405760405162461bcd60e51b815260206004820152600f60248201526e151c985b9cd9995c8819985a5b1959608a1b60448201526064016102f2565b50565b61044b610d90565b6000818152600360205260409020600481015460ff1661047d5760405162461bcd60e51b81526004016102f290610f83565b80600301543410156104c85760405162461bcd60e51b8152602060048201526014602482015273125b9cdd59999a58da595b9d081c185e5b595b9d60621b60448201526064016102f2565b60048101805460ff191690556003810154600090612710906104ec9060fa90610fc5565b6104f69190610fdc565b9050600081836003015461050a9190610ffe565b835460028501546001860154604051632142170760e11b81526001600160a01b039283166004820152336024820152604481019190915292935016906342842e0e90606401600060405180830381600087803b15801561056957600080fd5b505af115801561057d573d6000803e3d6000fd5b5050505060028301546040516000916001600160a01b03169083908381818185875af1925050503d80600081146105d0576040519150601f19603f3d011682016040523d82523d6000602084013e6105d5565b606091505b50509050806106265760405162461bcd60e51b815260206004820152601960248201527f5472616e7366657220746f2073656c6c6572206661696c65640000000000000060448201526064016102f2565b6001840154845460028601546003870154604080516001600160a01b0393841681523360208201529081019190915291169087907ffbd14ef83c9e36d4cd05cdc496d3b3a07da3041679b4142908d0ef3cef210dc49060600160405180910390a4505050506104406001600055565b61069d610d36565b6106a76000610de9565b565b600081116106f95760405162461bcd60e51b815260206004820152601c60248201527f5072696365206d7573742062652067726561746572207468616e20300000000060448201526064016102f2565b6000828152600360205260409020600481015460ff1661072b5760405162461bcd60e51b81526004016102f290610f83565b60028101546001600160a01b031633146107745760405162461bcd60e51b815260206004820152600a6024820152692737ba1039b2b63632b960b11b60448201526064016102f2565b6003810182905560405182815283907f945c1c4e99aa89f648fbfe3df471b916f719e16d960fcec0737d4d56bd6968389060200160405180910390a2505050565b6060600060015b6002548111610824576000818152600360205260409020546001600160a01b0385811691161480156107ff575060008181526003602052604090206004015460ff165b15610812578161080e81611011565b9250505b8061081c81611011565b9150506107bc565b5060008167ffffffffffffffff8111156108405761084061102a565b60405190808252806020026020018201604052801561089957816020015b6040805160a08101825260008082526020808301829052928201819052606082018190526080820152825260001990920191018161085e5790505b509050600060015b6002548111610986576000818152600360205260409020546001600160a01b0387811691161480156108e4575060008181526003602052604090206004015460ff165b1561097457600081815260036020818152604092839020835160a08101855281546001600160a01b03908116825260018301549382019390935260028201549092169382019390935290820154606082015260049091015460ff1615156080820152835184908490811061095a5761095a611040565b6020026020010181905250818061097090611011565b9250505b8061097e81611011565b9150506108a1565b5090949350505050565b60008082116109e15760405162461bcd60e51b815260206004820152601c60248201527f5072696365206d7573742062652067726561746572207468616e20300000000060448201526064016102f2565b6040516331a9108f60e11b81526004810184905233906001600160a01b03861690636352211e90602401602060405180830381865afa158015610a28573d6000803e3d6000fd5b505050506040513d601f19601f82011682018060405250810190610a4c9190611056565b6001600160a01b031614610a945760405162461bcd60e51b815260206004820152600f60248201526e2737ba103a37b5b2b71037bbb732b960891b60448201526064016102f2565b60405163020604bf60e21b81526004810184905230906001600160a01b0386169063081812fc90602401602060405180830381865afa158015610adb573d6000803e3d6000fd5b505050506040513d601f19601f82011682018060405250810190610aff9190611056565b6001600160a01b031614610b555760405162461bcd60e51b815260206004820152601860248201527f4d61726b6574706c616365206e6f7420617070726f766564000000000000000060448201526064016102f2565b60028054906000610b6583611011565b9091555050600280546040805160a0810182526001600160a01b0388811680835260208084018a815233858701818152606087018c815260016080890181815260008c81526003808952908c90209a518b54908b166001600160a01b0319918216178c559651928b019290925592519b890180549c9098169b9094169a909a1790955597519085015591516004909301805493151560ff199094169390931790925582519485528401869052919286929184917f18c93addaf4d0e5982a13cb88444441b90223974eaf9d6e898151cb4d96bf153910160405180910390a4949350505050565b60008060015b6002548111610cb9576000818152600360205260409020546001600160a01b038581169116148015610c94575060008181526003602052604090206004015460ff165b15610ca75781610ca381611011565b9250505b80610cb181611011565b915050610c51565b5092915050565b610cc8610d36565b6001600160a01b038116610d2d5760405162461bcd60e51b815260206004820152602660248201527f4f776e61626c653a206e6577206f776e657220697320746865207a65726f206160448201526564647265737360d01b60648201526084016102f2565b61044081610de9565b6001546001600160a01b031633146106a75760405162461bcd60e51b815260206004820181905260248201527f4f776e61626c653a2063616c6c6572206973206e6f7420746865206f776e657260448201526064016102f2565b600260005403610de25760405162461bcd60e51b815260206004820152601f60248201527f5265656e7472616e637947756172643a207265656e7472616e742063616c6c0060448201526064016102f2565b6002600055565b600180546001600160a01b038381166001600160a01b0319831681179093556040519116919082907f8be0079c531659141344cd1fd0a4f28419497f9722a3daafe3b4186f6b6457e090600090a35050565b600060208284031215610e4d57600080fd5b5035919050565b80516001600160a01b0390811683526020808301519084015260408083015190911690830152606080820151908301526080908101511515910152565b60a08101610e9f8284610e54565b92915050565b60008060408385031215610eb857600080fd5b50508035926020909101359150565b6001600160a01b038116811461044057600080fd5b600060208284031215610eee57600080fd5b8135610ef981610ec7565b9392505050565b6020808252825182820181905260009190848201906040850190845b81811015610f4257610f2f838551610e54565b9284019260a09290920191600101610f1c565b50909695505050505050565b600080600060608486031215610f6357600080fd5b8335610f6e81610ec7565b95602085013595506040909401359392505050565b6020808252601290820152714c697374696e67206e6f742061637469766560701b604082015260600190565b634e487b7160e01b600052601160045260246000fd5b8082028115828204841417610e9f57610e9f610faf565b600082610ff957634e487b7160e01b600052601260045260246000fd5b500490565b81810381811115610e9f57610e9f610faf565b60006001820161102357611023610faf565b5060010190565b634e487b7160e01b600052604160045260246000fd5b634e487b7160e01b600052603260045260246000fd5b60006020828403121561106857600080fd5b8151610ef981610ec756fea26469706673582212205c65e9b2e133e609c1916908e7a80314b184238cc3d492755c6dde3c9de44b8c64736f6c63430008140033",
  "linkReferences": {},
  "deployedLinkReferences": {}
}